:1000000010C02AC000C528C027C026C025C024C0F3
:1000100023C063C421C020C01FC01EC01DC01CC09F
:100020001BC011241FBECFE5D1E0DEBFCDBF10E065
:10003000A0E6B0E0EEEBFAE002C005900D92AC361F
:10004000B107D9F720E0ACE6B0E001C01D92AE3AAE
:10005000B207E1F724D231C5D3CFCF92DF92FF921E
:100060000F931F93CF93DF93AC01E0E0F0E020E02B
:1000700001E010E0FE2EE8010E2E02C0CC0FDD1FC5
:100080000A94E2F73C2F80E090E0A82F01966C01E3
:10009000CC22DD22CD2871F06A0102C0D694C7942B
:1000A000AA95E2F7D6010F2C01C0AA0F0A94EAF72D
:1000B000A3232A278F30910541F73196E430F105CB
:1000C000C9F6E0E0F0E090E0DA010E2E02C0B6954D
:1000D000A7950A94E2F7A1709A273196E031F105CD
:1000E00099F7222371F0913071F4215081E090E072
:1000F00002C0880F991F2A95E2F74827592790E0F8
:1001000003C0919501C09FEF21E030E0CAE0A0E07C
:10011000B0E0E22F8FEF820F2F303105D1F0E130C8
:10012000A9F08B7F823091F0FA01022E02C0F69581
:10013000E7950A94E2F7E170FF270C2E02C0EE0F5C
:10014000FF1F0A94E2F7AE2BBF2BC1502F5F3F4F2A
:10015000E0CFFB01B183A083892FDF91CF911F9165
:100160000F91FF90DF90CF9008950F931F93CF933F
:10017000DF93DC0141E050E0EAE020E030E0642F72
:100180009FEF940F4F305105D1F06130A9F09B7F64
:10019000923091F0BD010E2E02C0769567950A94BB
:1001A000E2F761707727042E02C0660F771F0A946A
:1001B000E2F7262B372BE1504F5F5F4FE0CF60E037
:1001C00070E0C1E0D0E0FE01062E02C0EE0FFF1F7E
:1001D0000A94E2F7DF01119783E090E0AC0141500F
:1001E00051098C010E231F23012B89F0890102C0C4
:1001F000169507954A95E2F7A801417055270A2EF2
:1002000002C0440F551F0A94E2F7242735270196B0
:100210008031910519F76F5F7F4F6430710599F652
:1002200040E050E080E0B901042E02C07695679569
:100230000A94E2F7617086274F5F5F4F40315105A6
:1002400091F790E09927869597958827822B932B95
:10025000DF91CF911F910F910895FC0120E030E0D4
:100260006623E1F091913927032E0294902D9F701F
:100270009327832F8025880F807E9827802D8327C2
:10028000807F8695032E000C881F3695369536950F
:100290003F7138273227292F6150E2CFC9010895D5
:1002A0001F93CF93DF93CDB7DEB7C251CDBF0FD32E
:1002B000182F823019F0843009F0E2C0BE01635F6C
:1002C0007F4F8091700090917100C7DE8111D3C083
:1002D0009D858091830098138FC08E85823009F4AC
:1002E00062C0833009F43FC0811186C080916C00E8
:1002F0008F5F837080936C0090916F0091111DC08F
:1003000028E030E0A90102C0559547958A95E2F7AB
:1003100040FF02C0DE9A01C0DE9888B3887F88BBA8
:1003200028B381E090E000906C0002C0880F991F14
:100330000A94E2F78770822B88BB6BE084E790E039
:100340008CDF9093800080937F0080916F008111FB
:1003500006C0DE9888B3887F88BB88B388BB6DE011
:1003600084E790E048C086E0E1E6F0E0DE01119627
:1003700001900D928A95E1F71F82188619861A86D8
:100380001C861B8680E090E090D36F8378878987F6
:100390009A876AE0CE01019660DF9C878B876CE0CC
:1003A000CE01019628C0143039F5809172009091E9
:1003B00073009A8B898BBE016F5F7F4F4EDE811178
:1003C00017C0898180936F0083FF02C0DE9A01C04D
:1003D000DE9888B3887F88BB98B380916F00877060
:1003E000892B88BB8FEF9FEF90936E0080936D00F9
:1003F00062E0CE01419656D21E85153051F017307D
:1004000019F01130A1F50BC08D858A3A81F5F8D429
:100410002EC08D858A3A59F51092840028C08091AB
:100420008400811124C02D85822F90E00196916077
:100430009A838983D5988FE097E20197F1F700C0FE
:100440000000209383002093740089819A818DDEBF
:100450009A8389832BD262E0CE01019623D2109336
:100460008400DE9888B3887F88BB88B388BB1092ED
:1004700082001092810064E080E790E008D209C019
:1004800080918100909182000196909382008093E8
:100490008100CE5ECDBFDF91CF911F91089587B3CC
:1004A000876087BBD69A80E886BD81E086BD88E1FB
:1004B00090E0F3D281BF85E790E094D0DFD18FE167
:1004C00081B964E080E790E0E2D17894C8E0D0E0C0
:1004D00001E010E084E8E82E90E8F92E8091840095
:1004E000882321F0813009F43FC0FACF80916C005D
:1004F0008F5F837080936C009E0102C035952795B5
:100500008A95E2F720FF02C0DE9A01C0DE9888B328
:10051000887F88BB98B3980100906C0002C0220FBE
:10052000331F0A94E2F7822F8770892B88BBD59AF4
:10053000109282001092810080918100909182003F
:10054000883E934058F687EE93E00197F1F700C09C
:100550000000A6DE80918100909182000196909328
:10056000820080938100E8CF65D09ADE80916D0093
:1005700090916E00009749F4DE9888B3887F88BB1D
:1005800088B388BB10926F0005C0019790936E00EE
:1005900080936D008091810090918200019609F016
:1005A0009DCFDE9888B3887F88BB88B388BBD59AF7
:1005B0003798E5BEF5BE85B7877E806185BF85B774
:1005C000806285BF979A889585B78F7D85BF109289
:1005D000820010928100379AD59864E080E790E01D
:1005E00056D17CCFCF93DF93EC0148E050E060E13F
:1005F00070E08BE990E042D248E050E068E070E0C3
:1006000083E990E03BD286E090E053D29093900053
:1006100080938F0084E090E04CD29093920080937E
:100620009100D0938E00C0938D0086E886B9DF914B
:10063000CF910895CF92DF92EF92FF920F931F9385
:10064000CF93DF933699FECF10918C00143008F0D1
:10065000C8C080916000882341F084B195B1B6E0B4
:1006600095958795BA95E1F702C084B195B120912F
:100670008B002330C8F0092E000CAA0BBB0B409155
:100680008700509188006091890070918A00840FE2
:10069000951FA61FB71F8093870090938800A09393
:1006A0008900B0938A000AC0213041F4133009F464
:1006B000B9C0812F87B91C981092600080918B007F
:1006C0008F5F80938B00833409F0A2C0009160009B
:1006D000C12FD0E0002309F4A7C060918F00709172
:1006E000900080E090E02091870030918800409158
:1006F000890050918A00A9D1BB2797FDB095AB2FF7
:100700008093870090938800A0938900B0938A001B
:10071000FE01EE0FFF1FED56FF4F2081318140E0BB
:1007200050E0011104C0C12CD12C760107C061ED4D
:10073000C62E65E4D62E62E0E62EF12C809187006D
:1007400090918800A0918900B0918A00BC01CD01F0
:100750006C0D7D1D8E1D9F1D78D1DC01CB01119686
:1007600021E1B695A795979587952A95D1F7CC0F56
:10077000DD1F20918D0030918E00C20FD31F1123F9
:1007800049F02091850030918600AC01421B530B4B
:100790009A0101C09C01398328839093860080933D
:1007A00085001092870010928800109289001092A4
:1007B0008A0010928B0081E080936000E0918C00B1
:1007C000EF5FE0938C00E43028F4F0E0E959FF4F4C
:1007D00080811AC082E280938C0082EA87B91C98DB
:1007E00017C01232A9F484B195B1E0918D00F09157
:1007F0008E002091910030919200821B930B918783
:10080000808710928C008BE087B983B1806983B9AF
:10081000369ADF91CF911F910F91FF90EF90DF906B
:10082000CF90089584E046CFFE01EE0FFF1FE556FE
:10083000FF4F73CF1092A90029B32095221F2227C2
:10084000221F2093A6009798D79AFC0182E0662386
:1008500081F01092AB0091919093AC0012BE88BFD2
:1008600099B7926099BF9091AB009B30E0F36150D3
:10087000EECF89B78D7F89BFD798089582E080BF7A
:1008800083BF81E386BF8BB780618BBF0895909350
:10089000A8008093A7008FEF8093A4006093A50029
:1008A000979A089529E02093A300C4CFCF93DF93B4
:1008B0001F92CDB7DEB719828AE08093A30061E072
:1008C000CE010196B7DF0F90DF91CF91089580910F
:1008D000AA0081118091A40008951F920F920FB673
:1008E0000F9211242F933F938F939F93EF93FF9336
:1008F0008091A9009091A60081111FC0892F20919D
:10090000AB002223A1F03091AB002091A30032175D
:1009100028F081E0992359F080E009C09091AC0063
:10092000917089279091AC0096959093AC008823A4
:1009300011F0DF9A58C0DF9856C089B391118095A5
:10094000881F8827881F9091AB00911109C08823C8
:1009500021F089B78D7F89BF979A1092AC0043C070
:100960009091AB00993068F49091AC00969590937B
:10097000AC008823C1F18091AC0080688093AC000A
:1009800032C09091AB009930F1F49091AC0091118C
:1009900005C0811103C01092A40025C08091A4005D
:1009A0008F3F09F19091A500891748F49091AC0010
:1009B000E091A700F091A800E80FF11D90838F5FF0
:1009C0008093A40010C08091AB008A3011F4979AF4
:1009D0000AC08091AB008C3031F489B78D7F89BF1C
:1009E00081E08093AA008091AB008F5F8093AB0081
:1009F000FF91EF919F918F913F912F910F900FBE9B
:100A00000F901F9018951F920F920FB60F921124FE
:100A10008F9386B7869582BF82E088BF89B7826050
:100A200089BF97981092AB001092AA0081E0809342
:100A3000A90089B3881F8827881F8093A6008F91FB
:100A40000F900FBE0F901F901895EE27FF27AA2733
:100A5000BB2708C0A20FB31FE41FF51F220F331FCF
:100A6000441F551F969587957795679598F3704025
:100A7000A9F7009799F7BD01CF010895DC01862FF2
:100A8000E82FE199FECF1FBA05C0EEBBE09AE395CF
:100A90000DB20D924150C8F70895E199FECF1FBAEB
:100AA0008EBBE09A99278DB30895A6E1B0E044E0AB
:0E0AB000E7CFA8E1B0E042E0E3CFF894FFCF3B
:0C0ABE000102000D5201410B0F1133002A
:100E0000CDB7DEB7C354CDBFF894979889B78D7F1F
:100E100089BFD798DF9889B38095881F8827881F56
:100E20008093AD0088B3876088BB20E041E050E04C
:100E300067E0962E3E0132E4630E711C13E001E080
:100E400075E0B72E30E060E070E0E0E090E09111F6
:100E50000CC08091AD00882319F0CF9BFECF02C05B
:100E6000CF99FECF86B7869582BF88B7826088BF4C
:100E700008B601FEFDCF8091AD00882319F089B33B
:100E8000809501C089B3881F8827881F911101C0F0
:100E900001F7FF24FA94F90EA7E0AF15E8F0E92E68
:100EA000F12C882361F0B1E0EB1AF1086A0102C06D
:100EB000CC0CDD1CEA94E2F77601EC2918C081E045
:100EC000E81AF108DA0102C0AA0FBB1FEA94E2F7A0
:100ED0007D01E094EE210BC0993049F4E11102C08C
:100EE000882319F06E2F70E002C06FEF7FEF9F5FD5
:100EF0009A3009F0ACCF77FDA5CF81E090E08C0F60
:100F00009D1F830F911DFC0160833F5F333409F007
:100F10009ACF88B3892588BBA980F7E3FA1508F42E
:100F200091CF80E090E0FE01319661919627092EE5
:100F30000294602D6F706927792F7025770F707E6E
:100F40006727702D7927707F7695092E000C771F03
:100F50009695969596959F7197279827862FE615D3
:100F6000F70519F7D3016D917C918617970709F062
:100F700035C0A2122CC08A2D90E036E0880F991F50
:100F80003A95E1F7FC0110935700E89507B600FC8D
:100F9000FDCFFC01BE016E5F7F4F7C0130E4E30EAC
:100FA000F11CEE15FF0558F4DB01CD90DD90BD017D
:100FB000060100935700E89511243296F2CFFC0108
:100FC000B0925700E89507B600FCFDCF2F5FF7E31E
:100FD000AF1238CF26D8CD5BCDBF0895CF9B02C0CE
:100FE000DF9801C0DF9AD79A12BE88B7826088BFA7
:0C0FF00008B601FEFDCFD798DF9824CF93
:00000001FF
